:100000000C94D7000C94F4000C94F4000C94F400BD
:100010000C94F4000C94F4000C94F4000C94F40090
:100020000C94F4000C94F4000C94F4000C94F40080
:100030000C94F4000C94F4000C94F4000C94F40070
:100040000C94F4000C94F4000C94F4000C94F40060
:100050000C94F4000C94DC010C94F4000C94F40067
:100060000C94F4000C94F4000C94F4000C94F40040
:100070000C94F4000C94F4000C94F4000C94F40030
:100080000C94F4000C94F4000C94F4000C94F40020
:100090000C94F4000C94F4000C94F4000C94F40010
:1000A0000C94F4000C94F4000C94F4000C94F40000
:1000B0000C94F40000407A10F35A00A0724E180914
:1000C0000010A5D4E80000E87648170000E40B54BF
:1000D000020000CA9A3B000000E1F505000080968E
:1000E0009800000040420F000000A08601000000C0
:1000F000102700000000E80300000000640000007A
:1001000000000A00000000000100000000002C7642
:10011000D888DC674F0823DFC1DFAE59E1B1B7965D
:10012000E5E3E453C63AE651997696E8E6C28426BA
:10013000EB898C9B62ED407C6FFCEFBC9C9F40F296
:10014000BAA56FA5F490055A2AF75C936B6CF96712
:100150006DC11BFCE0E40D47FEF520E6B500D0EDD7
:10016000902E0300943577050080841E080000203F
:100170004E0A000000C80C333333330F986E1283DD
:100180001141EF8D2114893BE65516CFFEE6DB18B1
:10019000D1844B381BF77C1D901DA4BBE424203276
:1001A00084725E228100C9F124ECA1E53D2711246F
:1001B0001FBECFEFD8E0DEBFCDBF11E0A0E0B1E0C1
:1001C000E2E0F0E102C005900D92A237B107D9F745
:1001D00021E0A2E7B1E001C01D92A237B207E1F72A
:1001E0000E94FF010C94FF070C9400008BB985B1AD
:1001F0008E7F85B985B18D7F85B985B1846085B9DC
:100200002FEF81EE94E0215080409040E1F700C054
:10021000000085B18B7F85B9089588E30E94F600C0
:100220008FE99FE00197F1F700C000008CE00E9489
:10023000F6008FE99FE00197F1F700C0000081E030
:100240000E94F6008FE99FE00197F1F700C00000DF
:1002500086E00E94F6008FE99FE00197F1F700C069
:10026000000080E80E94F6008FE99FE00197F1F717
:1002700000C0000008958BB985B1816085B985B152
:100280008D7F85B985B1846085B92FEF80E792E0D5
:10029000215080409040E1F700C0000085B18B7F85
:1002A00085B908950F931F93CF93DF938C01C0E01E
:1002B000D0E0F801EC0FFD1F8081882321F00E941F
:1002C0003B012196F6CFDF91CF911F910F910895B9
:1002D000ECE7F0E080818F738083EAE7F0E08081D3
:1002E0008F6880830895EEE7F0E0908121E030E0B0
:1002F00002C0220F331F8A95E2F7292B208308952D
:10030000EEE7F0E0908121E030E002C0220F331FE1
:100310008A95E2F72095292320830895ECE7F0E001
:100320009081907F90839081892B80830895CF92D4
:10033000DF92EF92FF926B017C0120E030E040E21F
:1003400050E40E94AC0318165CF426E636E646E854
:1003500050E4C701B6010E940405882344F410C08C
:10036000C12CD12C76016894E5F8F6F809C00F2E5F
:10037000F6E6CF2EDC2CF6E8EF2EF0E4FF2EF02D83
:1003800020E030E040E250E4C701B6010E943F03A4
:1003900028E939E949ED5FE30E94B10320E030E04C
:1003A00048EC52E40E9409050E942304862FFF9026
:1003B000EF90DF90CF9008951F920F920FB60F929B
:1003C00011248F9381E0809300018F910F900FBED5
:1003D0000F901F90189510920001EAE7F0E08081DD
:1003E00080648083809100018823E1F3209178006C
:1003F0008091790090E0982F8827822B0895CF93E1
:10040000DF93CDB7DEB7EC970FB6F894DEBF0FBE23
:10041000CDBF8AB18FEF8AB984B1876084B987B1C3
:100420008B7D87B987B1886187B985B1886085B9C7
:1004300088B18F7D88B988B1886188B90E946801C8
:10044000789488B18F7E88B91B99FBCF88B1877F5C
:1004500088B90E940D0181E091E00E9452018FE372
:100460009CE90197F1F700C0000080EC0E94F600C3
:100470008FE39CE90197F1F700C0000082E191E071
:100480000E9452019FEF23ED80E391502040804075
:10049000E1F700C0000081E00E94F60080E00E94C9
:1004A000730180E00E948E010E94EB01BC0180E09C
:1004B00090E00E94520429EE36E245EA5BE30E9496
:1004C00009054B015C010E949701E82EF12C80E0A8
:1004D0000E9480018E010F5F1F4F22E044E0C501A2
:1004E000B4010E947605B7010F2C000C880B990B04
:1004F0000E945404085D1F4F20E044E00E947605EE
:1005000080E80E94F60083E291E00E945201359B50
:1005100012C08CE291E00E94520180EC0E94F60031
:100520008FE39CE90197F1F700C0000081E391E0BF
:100530000E94520115C0CE0189960E9452018AE3A1
:1005400091E00E94520180EC0E94F6008FE39CE94A
:100550000197F1F700C0000081E391E00E94520191
:10056000359B0EC094E6E916F1042CF08DE391E082
:100570000E94520112C082E491E00E9452010DC01B
:100580002BE0E216F1042CF48BE491E00E9452017E
:1005900004C085E591E00E9452018FEF93ED20E3C6
:1005A000815090402040E1F700C0000081E00E94AF
:1005B000F60082E00E94730182E00E948E010E9498
:1005C000EB01BC0180E090E00E94520429EE36E28B
:1005D00045EA5BE30E9409052AE037ED43E25CE36C
:1005E0000E94400320E030E04AE754E40E940905FD
:1005F00020E030E04CE552E40E943F034B015C01F7
:1006000082E00E9480018E010B5E1F4F22E044E0D9
:10061000C501B4010E94760580E80E94F6008BE5D2
:1006200091E00E945201CE0101960E94520185E69E
:1006300091E00E9452018FE39CE90197F1F700C01D
:10064000000080EC0E94F60088E691E00E945201D2
:10065000C8010E9452018FE691E00E9452019FEF73
:1006600023ED80E3915020408040E1F700C000007E
:1006700081E00E94F60088B1886088B9E2CE5058C7
:10068000BB27AA270E9457030C94CA040E94BC04EB
:1006900038F00E94C30420F039F49F3F19F426F487
:1006A0000C94B9040EF4E095E7FB0C94B304E92F25
:1006B0000E94DB0458F3BA17620773078407950793
:1006C00020F079F4A6F50C94FD040EF4E0950B2EC1
:1006D000BA2FA02D0B01B90190010C01CA01A00194
:1006E0001124FF27591B99F0593F50F4503E68F1EF
:1006F0001A16F040A22F232F342F4427585FF3CF30
:10070000469537952795A795F0405395C9F77EF400
:100710001F16BA0B620B730B840BBAF09150A1F049
:10072000FF0FBB1F661F771F881FC2F70EC0BA0FCF
:10073000621F731F841F48F4879577956795B79557
:10074000F7959E3F08F0B0CF9395880F08F0992752
:10075000EE0F9795879508950E948F0408F481E025
:1007600008950E94C5030C94CA040E94C30458F063
:100770000E94BC0440F029F45F3F29F00C94B304BC
:1007800051110C94FE040C94B9040E94DB0468F32C
:100790009923B1F3552391F3951B550BBB27AA273A
:1007A00062177307840738F09F5F5F4F220F331F74
:1007B000441FAA1FA9F335D00E2E3AF0E0E832D03C
:1007C00091505040E695001CCAF72BD0FE2F29D03F
:1007D000660F771F881FBB1F261737074807AB0711
:1007E000B0E809F0BB0B802DBF01FF2793585F4F86
:1007F0003AF09E3F510578F00C94B3040C94FE043B
:100800005F3FE4F3983ED4F3869577956795B79567
:10081000F7959F5FC9F7880F911D9695879597F972
:100820000895E1E0660F771F881FBB1F62177307EB
:100830008407BA0720F0621B730B840BBA0BEE1F00
:1008400088F7E09508950E94E30488F09F5798F098
:10085000B92F9927B751B0F0E1F0660F771F881FC5
:10086000991F1AF0BA95C9F714C0B13091F00E94DF
:10087000FD04B1E008950C94FD04672F782F8827BC
:10088000B85F39F0B93FCCF3869577956795B39506
:10089000D9F73EF490958095709561957F4F8F4F75
:1008A0009F4F0895E89409C097FB3EF4909580957A
:1008B000709561957F4F8F4F9F4F9923A9F0F92F26
:1008C00096E9BB279395F695879577956795B795A4
:1008D000F111F8CFFAF4BB0F11F460FF1BC06F5F8A
:1008E0007F4F8F4F9F4F16C0882311F096E911C09C
:1008F000772321F09EE8872F762F05C0662371F0BD
:1009000096E8862F70E060E02AF09A95660F771FD0
:10091000881FDAF7880F9695879597F90895990FAC
:100920000008550FAA0BE0E8FEEF16161706E807B9
:10093000F907C0F012161306E407F50798F0621BDA
:10094000730B840B950B39F40A2661F0232B242BAF
:10095000252B21F408950A2609F4A140A6958FEFCE
:10096000811D811D089597F99F6780E870E060E020
:1009700008959FEF80EC089500240A941616170638
:1009800018060906089500240A9412161306140680
:1009900005060895092E0394000C11F4882352F0E3
:1009A000BB0F40F4BF2B11F460FF04C06F5F7F4F9B
:1009B0008F4F9F4F089557FD9058440F551F59F082
:1009C0005F3F71F04795880F97FB991F61F09F3F3C
:1009D00079F087950895121613061406551FF2CF65
:1009E0004695F1DF08C0161617061806991FF1CFB5
:1009F00086957105610508940895E894BB276627DC
:100A00007727CB0197F908950E948F0408F48FEFA0
:100A100008950E941C050C94CA040E94BC0438F07E
:100A20000E94C30420F0952311F00C94B3040C949D
:100A3000B90411240C94FE040E94DB0470F3959F0A
:100A4000C1F3950F50E0551F629FF001729FBB27C5
:100A5000F00DB11D639FAA27F00DB11DAA1F649F61
:100A60006627B00DA11D661F829F2227B00DA11D14
:100A7000621F739FB00DA11D621F839FA00D611D9A
:100A8000221F749F3327A00D611D231F849F600DBB
:100A9000211D822F762F6A2F11249F5750409AF0E4
:100AA000F1F088234AF0EE0FFF1FBB1F661F771F70
:100AB000881F91505040A9F79E3F510580F00C943B
:100AC000B3040C94FE045F3FE4F3983ED4F38695A0
:100AD00077956795B795F795E7959F5FC1F7FE2BDB
:100AE000880F911D9695879597F90895EF920F932A
:100AF0001F93CF93DF93E80147FD02C034E001C0AC
:100B000034E1042E000C550B57FF03C0519541955D
:100B10005109E32E022F242FAE010E949605CE012B
:100B2000DF91CF911F910F91EF900895A9E0B0E070
:100B3000ECE9F5E00C94CE076A01122FB02E2BE3FE
:100B4000201720F0FF24F394F00E02C02CE3F22EC5
:100B50000F2D27E0AE014F5F5F4F0E94F006BC01F2
:100B60004981842F8970813031F0E1FC06C0E0FEBC
:100B700006C090E205C09DE203C09BE201C090E088
:100B80005E2D507143FF3CC0911102C083E001C053
:100B900084E0811718F4212F281B01C020E0511197
:100BA0000BC0F601822F30E2882319F03193815077
:100BB000FBCFC20ED11C20E0992329F0D6019C93D3
:100BC000F60131966F01C6010396E2FE0AC03EE4CB
:100BD000D6013C9341E411964C93119712963C93A5
:100BE00006C03EE6F601308341E641833283FC01D4
:100BF000322F40E2332309F442C041933150FACFFF
:100C000042FF44C0911102C083E001C084E081171B
:100C100018F4212F281B01C020E051110BC0F60150
:100C2000822F30E2882319F031938150FBCFC20E1E
:100C3000D11C20E0992329F0D6019C93F60131962E
:100C40006F01C6010396E2FE0BC039E4D6013C9366
:100C50003EE411963C93119736E412963C9307C0FC
:100C600039E6F60130833EE6318336E63283FC0115
:100C7000322F40E2332319F041933150FBCFFC0176
:100C8000E20FF11D10828EEF9FEFA6C021E030E051
:100C9000911102C020E030E0161617061CF4FB018B
:100CA000319602C0E1E0F0E02E0F3F1FBB2021F0A3
:100CB000EB2DF0E0319602C0E0E0F0E02E0F3F1F98
:100CC000E12FF0E02E173F071CF4121B212F01C06B
:100CD00020E08E2D887159F4F601822F30E28823AE
:100CE00019F031938150FBCFC20ED11C20E0992323
:100CF00029F0D6019C93F60131966F0151110BC07A
:100D0000F601822F90E3882319F091938150FBCF55
:100D1000C20ED11C20E00F2D060F9A81342F3071A6
:100D200044FF03C0913309F40150101624F4093034
:100D300018F008E001C001E0AB0177FF02C040E01D
:100D400050E0FB01E41BF50BA1E0B0E0AC0FBD1FD0
:100D5000EA0FFB1F8EE2A82E4B01801A91080B2D83
:100D600010E01195019511094F3FBFEF5B0721F48A
:100D7000D601AC9211966D01641775072CF084169C
:100D8000950614F4818101C080E3415051093196E8
:100D9000D60111967D014017510724F0D6018C939E
:100DA0006701E2CF6417750739F4963320F4953361
:100DB00019F4311101C081E3F6018083F701822F1C
:100DC00090E2882319F091938150FBCFF701E20F55
:100DD000F11D108280E090E02996ECE00C94EA0787
:100DE000283008F027E03327DA01990F311D87FDFD
:100DF000916000966105710539F432602E5F3D9374
:100E000030E32A95E1F708959F3F30F0803871056F
:100E1000610509F03C5F3C5F3D93913008F08068CC
:100E2000911DDF93CF931F930F93FF92EF92192F92
:100E3000987F9695E92F96959695E90FFF27E25FA3
:100E4000FE4F99273327EE24FF24A701E7010590E1
:100E50000894079428F4360FE71EF81E491F511D09
:100E6000660F771F881F991F0694A1F705900794B6
:100E700028F4E70EF81E491F561FC11D770F881F63
:100E8000991F661F0694A1F70590079428F4F80EA1
:100E9000491F561FC71FD11D880F991F661F771F37
:100EA0000694A1F70590079420F4490F561FC71F19
:100EB000D81F990F661F771F881F0694A9F7849182
:100EC0001095177041F0D695C79557954795F794AB
:100ED000E7941A95C1F7E4EBF0E06894159015914A
:100EE00035916591959105907FE27395E118F10A2E
:100EF000430B560BC90BD009C0F7E10CF11E431F81
:100F0000561FC91FD01D7EF4703311F48A95E6CFA9
:100F1000E894015030F0080F0AF40027021708F493
:100F2000202F2395022F7A3328F079E37D932A9599
:100F3000E9F710C07D932A9589F6069497956795F1
:100F4000379517951794E118F10A430B560BC90B07
:100F5000D00998F023957E9173957A3308F070E369
:100F60007C932013B8F77E9170617D9330F0839568
:100F700071E37D9370E32A95E1F71124EF90FF90E0
:100F80000F911F91CF91DF91992787FD909508953B
:100F90002F923F924F925F926F927F928F929F9289
:100FA000AF92BF92CF92DF92EF92FF920F931F9377
:100FB000CF93DF93CDB7DEB7CA1BDB0B0FB6F89428
:100FC000DEBF0FBECDBF09942A88398848885F8468
:100FD0006E847D848C849B84AA84B984C884DF80D9
:100FE000EE80FD800C811B81AA81B981CE0FD11DBD
:100FF0000FB6F894DEBF0FBECDBFED010895F89493
:02100000FFCF20
:101002000153445355204543452D3439322054234E
:101012003400506F727461626C652043686172675C
:10102200657200424154544552593A00202E2E2EE8
:10103200005354415455533A200020250046554C44
:101042004C004348415247494E470052452D4348C0
:101052004152474500524541445900564F4C544174
:1010620047453A200020560054454D503A20002072
:02107200460036
:00000001FF
